{
  "contractName": "Main",
  "abi": [
    {
      "constant": true,
      "inputs": [
        {
          "internalType": "address",
          "name": "",
          "type": "address"
        }
      ],
      "name": "covidStatus",
      "outputs": [
        {
          "internalType": "bool",
          "name": "",
          "type": "bool"
        }
      ],
      "payable": false,
      "stateMutability": "view",
      "type": "function"
    },
    {
      "constant": false,
      "inputs": [
        {
          "internalType": "string",
          "name": "_geoData",
          "type": "string"
        }
      ],
      "name": "set",
      "outputs": [],
      "payable": false,
      "stateMutability": "nonpayable",
      "type": "function"
    },
    {
      "constant": true,
      "inputs": [],
      "name": "get",
      "outputs": [
        {
          "internalType": "string",
          "name": "_geoData",
          "type": "string"
        }
      ],
      "payable": false,
      "stateMutability": "view",
      "type": "function"
    },
    {
      "constant": true,
      "inputs": [
        {
          "internalType": "address",
          "name": "userAddress",
          "type": "address"
        }
      ],
      "name": "getCovidStatus",
      "outputs": [
        {
          "internalType": "bool",
          "name": "",
          "type": "bool"
        }
      ],
      "payable": false,
      "stateMutability": "view",
      "type": "function"
    },
    {
      "constant": false,
      "inputs": [
        {
          "internalType": "address",
          "name": "userAddress",
          "type": "address"
        },
        {
          "internalType": "bool",
          "name": "status",
          "type": "bool"
        }
      ],
      "name": "changeCovidStatus",
      "outputs": [
        {
          "internalType": "bool",
          "name": "",
          "type": "bool"
        }
      ],
      "payable": false,
      "stateMutability": "nonpayable",
      "type": "function"
    },
    {
      "constant": false,
      "inputs": [
        {
          "internalType": "address",
          "name": "user",
          "type": "address"
        },
        {
          "internalType": "address",
          "name": "_contact",
          "type": "address"
        }
      ],
      "name": "addContact",
      "outputs": [],
      "payable": false,
      "stateMutability": "nonpayable",
      "type": "function"
    },
    {
      "constant": false,
      "inputs": [
        {
          "internalType": "address",
          "name": "user",
          "type": "address"
        }
      ],
      "name": "setCheckCorona",
      "outputs": [
        {
          "internalType": "uint256",
          "name": "",
          "type": "uint256"
        }
      ],
      "payable": false,
      "stateMutability": "nonpayable",
      "type": "function"
    },
    {
      "constant": true,
      "inputs": [],
      "name": "getCheckCorona",
      "outputs": [
        {
          "internalType": "uint256",
          "name": "",
          "type": "uint256"
        }
      ],
      "payable": false,
      "stateMutability": "view",
      "type": "function"
    },
    {
      "constant": false,
      "inputs": [],
      "name": "clearCheckCorona",
      "outputs": [],
      "payable": false,
      "stateMutability": "nonpayable",
      "type": "function"
    },
    {
      "constant": false,
      "inputs": [
        {
          "internalType": "address",
          "name": "user",
          "type": "address"
        }
      ],
      "name": "setcheckSecondary",
      "outputs": [
        {
          "internalType": "uint256",
          "name": "",
          "type": "uint256"
        }
      ],
      "payable": false,
      "stateMutability": "nonpayable",
      "type": "function"
    },
    {
      "constant": true,
      "inputs": [
        {
          "internalType": "address",
          "name": "user",
          "type": "address"
        }
      ],
      "name": "getcheckSecondary",
      "outputs": [
        {
          "internalType": "uint256",
          "name": "",
          "type": "uint256"
        }
      ],
      "payable": false,
      "stateMutability": "view",
      "type": "function"
    },
    {
      "constant": false,
      "inputs": [],
      "name": "clearCheckSecondary",
      "outputs": [],
      "payable": false,
      "stateMutability": "nonpayable",
      "type": "function"
    },
    {
      "constant": false,
      "inputs": [
        {
          "internalType": "address",
          "name": "user",
          "type": "address"
        }
      ],
      "name": "setTree",
      "outputs": [
        {
          "internalType": "address[]",
          "name": "",
          "type": "address[]"
        }
      ],
      "payable": false,
      "stateMutability": "nonpayable",
      "type": "function"
    },
    {
      "constant": true,
      "inputs": [
        {
          "internalType": "address",
          "name": "user",
          "type": "address"
        }
      ],
      "name": "getTree",
      "outputs": [
        {
          "internalType": "address[]",
          "name": "",
          "type": "address[]"
        }
      ],
      "payable": false,
      "stateMutability": "view",
      "type": "function"
    },
    {
      "constant": false,
      "inputs": [],
      "name": "clearArr",
      "outputs": [],
      "payable": false,
      "stateMutability": "nonpayable",
      "type": "function"
    }
  ],
  "bytecode": "0x608060405234801561001057600080fd5b50610fb7806100206000396000f3fe608060405234801561001057600080fd5b50600436106100f55760003560e01c8063bf8c9da411610097578063cc0e272611610066578063cc0e272614610272578063e24ba0fe146102a2578063e5a2c843146102d2578063ef415c5614610302576100f5565b8063bf8c9da4146101ea578063bfc101b814610208578063c0c82a8e14610212578063cb521aa714610242576100f5565b80636d4ce63c116100d35780636d4ce63c1461016257806374c15311146101805780637613f4d5146101b05780639ab14af5146101e0576100f5565b8063303e7f35146100fa57806337858b0c1461012a5780634ed3885e14610146575b600080fd5b610114600480360361010f9190810190610bc5565b61030c565b6040516101219190610d83565b60405180910390f35b610144600480360361013f9190810190610bee565b6104da565b005b610160600480360361015b9190810190610c66565b610584565b005b61016a61059e565b6040516101779190610dc0565b60405180910390f35b61019a60048036036101959190810190610c2a565b610640565b6040516101a79190610da5565b60405180910390f35b6101ca60048036036101c59190810190610bc5565b6106ee565b6040516101d79190610d83565b60405180910390f35b6101e861077e565b005b6101f2610788565b6040516101ff9190610de2565b60405180910390f35b610210610792565b005b61022c60048036036102279190810190610bc5565b6107a2565b6040516102399190610da5565b60405180910390f35b61025c60048036036102579190810190610bc5565b6107f8565b6040516102699190610de2565b60405180910390f35b61028c60048036036102879190810190610bc5565b610947565b6040516102999190610de2565b60405180910390f35b6102bc60048036036102b79190810190610bc5565b610a4b565b6040516102c99190610de2565b60405180910390f35b6102ec60048036036102e79190810190610bc5565b610a57565b6040516102f99190610da5565b60405180910390f35b61030a610a77565b005b606060008090505b600260008473ffffffffffffffffffffffffffffffffffffffff1673ffffffffffffffffffffffffffffffffffffffff1681526020019081526020016000206000018054905081101561044b576005600260008573ffffffffffffffffffffffffffffffffffffffff1673ffffffffffffffffffffffffffffffffffffffff16815260200190815260200160002060000182815481106103b057fe5b9060005260206000200160009054906101000a900473ffffffffffffffffffffffffffffffffffffffff1690806001815401808255809150509060018203906000526020600020016000909192909190916101000a81548173ffffffffffffffffffffffffffffffffffffffff021916908373ffffffffffffffffffffffffffffffffffffffff160217905550508080600101915050610314565b5060058054806020026020016040519081016040528092919081815260200182805480156104ce57602002820191906000526020600020905b8160009054906101000a900473ffffffffffffffffffffffffffffffffffffffff1673ffffffffffffffffffffffffffffffffffffffff1681526020019060010190808311610484575b50505050509050919050565b600260008373ffffffffffffffffffffffffffffffffffffffff1673ffffffffffffffffffffffffffffffffffffffff1681526020019081526020016000206000018190806001815401808255809150509060018203906000526020600020016000909192909190916101000a81548173ffffffffffffffffffffffffffffffffffffffff021916908373ffffffffffffffffffffffffffffffffffffffff160217905550505050565b806000908051906020019061059a929190610a81565b5050565b606060008054600181600116156101000203166002900480601f0160208091040260200160405190810160405280929190818152602001828054600181600116156101000203166002900480156106365780601f1061060b57610100808354040283529160200191610636565b820191906000526020600020905b81548152906001019060200180831161061957829003601f168201915b5050505050905090565b600081600160008573ffffffffffffffffffffffffffffffffffffffff1673ffffffffffffffffffffffffffffffffffffffff16815260200190815260200160002060006101000a81548160ff021916908315150217905550600160008473ffffffffffffffffffffffffffffffffffffffff1673ffffffffffffffffffffffffffffffffffffffff16815260200190815260200160002060009054906101000a900460ff16905092915050565b6060600580548060200260200160405190810160405280929190818152602001828054801561077257602002820191906000526020600020905b8160009054906101000a900473ffffffffffffffffffffffffffffffffffffffff1673ffffffffffffffffffffffffffffffffffffffff1681526020019060010190808311610728575b50505050509050919050565b6000600381905550565b6000600354905090565b600560006107a09190610b01565b565b6000600160008373ffffffffffffffffffffffffffffffffffffffff1673ffffffffffffffffffffffffffffffffffffffff16815260200190815260200160002060009054906101000a900460ff169050919050565b600080600090506000600260008573ffffffffffffffffffffffffffffffffffffffff1673ffffffffffffffffffffffffffffffffffffffff16815260200190815260200160002060000180549050905060008090505b8181101561093f576001806000600260008973ffffffffffffffffffffffffffffffffffffffff1673ffffffffffffffffffffffffffffffffffffffff16815260200190815260200160002060000184815481106108a957fe5b9060005260206000200160009054906101000a900473ffffffffffffffffffffffffffffffffffffffff1673ffffffffffffffffffffffffffffffffffffffff1673ffffffffffffffffffffffffffffffffffffffff16815260200190815260200160002060006101000a81548160ff0219169083151502179055156109325782806001019350505b808060010191505061084f565b505050919050565b600080600090506000600260008573ffffffffffffffffffffffffffffffffffffffff1673ffffffffffffffffffffffffffffffffffffffff16815260200190815260200160002060000180549050905060008090505b81811015610a4057610a26600260008773ffffffffffffffffffffffffffffffffffffffff1673ffffffffffffffffffffffffffffffffffffffff16815260200190815260200160002060000182815481106109f657fe5b9060005260206000200160009054906101000a900473ffffffffffffffffffffffffffffffffffffffff166107f8565b50610a2f610788565b83019250808060010191505061099e565b508192505050919050565b60006004549050919050565b60016020528060005260406000206000915054906101000a900460ff1681565b6000600481905550565b828054600181600116156101000203166002900490600052602060002090601f016020900481019282601f10610ac257805160ff1916838001178555610af0565b82800160010185558215610af0579182015b82811115610aef578251825591602001919060010190610ad4565b5b509050610afd9190610b22565b5090565b5080546000825590600052602060002090810190610b1f9190610b22565b50565b610b4491905b80821115610b40576000816000905550600101610b28565b5090565b90565b600081359050610b5681610f46565b92915050565b600081359050610b6b81610f5d565b92915050565b600082601f830112610b8257600080fd5b8135610b95610b9082610e2a565b610dfd565b91508082526020830160208301858383011115610bb157600080fd5b610bbc838284610ef3565b50505092915050565b600060208284031215610bd757600080fd5b6000610be584828501610b47565b91505092915050565b60008060408385031215610c0157600080fd5b6000610c0f85828601610b47565b9250506020610c2085828601610b47565b9150509250929050565b60008060408385031215610c3d57600080fd5b6000610c4b85828601610b47565b9250506020610c5c85828601610b5c565b9150509250929050565b600060208284031215610c7857600080fd5b600082013567ffffffffffffffff811115610c9257600080fd5b610c9e84828501610b71565b91505092915050565b6000610cb38383610cbf565b60208301905092915050565b610cc881610eab565b82525050565b6000610cd982610e66565b610ce38185610e89565b9350610cee83610e56565b8060005b83811015610d1f578151610d068882610ca7565b9750610d1183610e7c565b925050600181019050610cf2565b5085935050505092915050565b610d3581610ebd565b82525050565b6000610d4682610e71565b610d508185610e9a565b9350610d60818560208601610f02565b610d6981610f35565b840191505092915050565b610d7d81610ee9565b82525050565b60006020820190508181036000830152610d9d8184610cce565b905092915050565b6000602082019050610dba6000830184610d2c565b92915050565b60006020820190508181036000830152610dda8184610d3b565b905092915050565b6000602082019050610df76000830184610d74565b92915050565b6000604051905081810181811067ffffffffffffffff82111715610e2057600080fd5b8060405250919050565b600067ffffffffffffffff821115610e4157600080fd5b601f19601f8301169050602081019050919050565b6000819050602082019050919050565b600081519050919050565b600081519050919050565b6000602082019050919050565b600082825260208201905092915050565b600082825260208201905092915050565b6000610eb682610ec9565b9050919050565b60008115159050919050565b600073ffffffffffffffffffffffffffffffffffffffff82169050919050565b6000819050919050565b82818337600083830152505050565b60005b83811015610f20578082015181840152602081019050610f05565b83811115610f2f576000848401525b50505050565b6000601f19601f8301169050919050565b610f4f81610eab565b8114610f5a57600080fd5b50565b610f6681610ebd565b8114610f7157600080fd5b5056fea365627a7a723158204536e9ebba9c800f8a6c2154c71edf82934fd64308fb4501607cf1476cae7d8d6c6578706572696d656e74616cf564736f6c63430005100040",
  "source": "pragma solidity >= 0.4.21 <0.7.0;\r\npragma experimental ABIEncoderV2;\r\n\r\ncontract Main {\r\n    \r\n    //Aditya's IPFS Part\r\n    string geoData;\r\n    \r\n    function set(string memory _geoData) public {\r\n        geoData = _geoData;\r\n    }\r\n    \r\n    function get() public view returns(string memory _geoData) {\r\n        return geoData;\r\n    }\r\n    \r\n    \r\n    //managing COVID Statuses\r\n    mapping(address => bool) public covidStatus;\r\n    \r\n    function getCovidStatus(address userAddress) public view returns (bool) {\r\n        return covidStatus[userAddress];\r\n    }\r\n    \r\n    function changeCovidStatus(address userAddress, bool status) public returns (bool) {\r\n        covidStatus[userAddress] = status;\r\n        return covidStatus[userAddress];\r\n    }\r\n    \r\n    \r\n    //Creating hash table of contacts\r\n    struct ContactList {\r\n        address[] contacts;\r\n    }\r\n    \r\n    mapping(address => ContactList) contactTree;\r\n    \r\n    function addContact(address user, address _contact) public {\r\n        contactTree[user].contacts.push(_contact);\r\n    }\r\n    \r\n    uint256 totalCorona;\r\n    //These two functions return the value secondary corona contacts and first gen\r\n    function setCheckCorona(address user) public returns (uint256) {\r\n        uint256 totalCorona = 0;\r\n        uint256 arrayLength = contactTree[user].contacts.length;\r\n        for (uint i = 0; i < arrayLength; i++) {\r\n            if (covidStatus[contactTree[user].contacts[i]] = true) {\r\n                totalCorona++;\r\n            }\r\n        }\r\n    }\r\n\r\n    function getCheckCorona() public view returns (uint256) {\r\n           return totalCorona;\r\n    }\r\n\r\n    function clearCheckCorona() public {\r\n        totalCorona = 0;\r\n        \r\n    }\r\n    \r\n    uint256 secondaryCorona;\r\n    function setcheckSecondary(address user) public returns (uint256) {\r\n        uint256 secondaryCorona = 0;\r\n        uint256 arrayLength = contactTree[user].contacts.length;\r\n         for (uint i = 0; i < arrayLength; i++) {\r\n             setCheckCorona(contactTree[user].contacts[i]);\r\n             secondaryCorona = secondaryCorona + getCheckCorona();\r\n         }\r\n         return secondaryCorona;\r\n    }\r\n\r\n    function getcheckSecondary(address user) public view returns (uint256) {\r\n        return secondaryCorona;\r\n    }\r\n\r\n    function clearCheckSecondary() public {\r\n        secondaryCorona = 0; \r\n    }\r\n    \r\n    \r\n \r\n    address[] connections;\r\n    \r\n    // //Need to send a total list of any connected contacts and their corona status\r\n    // function getConnections(address user) public returns (address[][] memory){\r\n    //        connections.push(contactTree[user].contacts); \r\n    //}\r\n\r\n    function setTree(address user) public returns(address[] memory){\r\n        for (uint i = 0; i < contactTree[user].contacts.length; i++) {\r\n            connections.push(contactTree[user].contacts[i]);\r\n        }\r\n        return connections;\r\n    }\r\n\r\n    function getTree(address user) public view returns(address[] memory){\r\n        return connections;\r\n    }\r\n\r\n\r\n    // console.log(coonnections) [][] [[contact1, contact2][contact1 contact2]]\r\n    // bool[] visited;\r\n    // uint256 level = 0;\r\n    \r\n    //address[][] allConnections;\r\n\r\n    // function getAllConnections(address user) public returns (address[] memory) {\r\n    //     uint256 arrayLength = contactTree[user].contacts.length;\r\n    //     if (level != 0) {\r\n    //         level = level + 1;\r\n    //     }\r\n\r\n    //     for (uint256 i = 0; i < arrayLength; i++) {\r\n    //         if (visited[i]) { // didn't visit\r\n    //             visited[i] = false;\r\n    //             address[] levelConnections = contactTree[user];\r\n    //         }\r\n    //     }\r\n    //     return allConnections;\r\n\r\n\r\n\r\n    // }\r\n     \r\n    function clearArr() public {\r\n        delete connections;\r\n        \r\n    }\r\n}",
  "sourcePath": "C:\\Users\\marko\\Documents\\GitHub\\hths.hacks-\\contracts\\Main.sol",
  "compiler": {
    "name": "solc",
    "version": "0.5.16+commit.9c3226ce.Emscripten.clang"
  },
  "schemaVersion": "3.0.23",
  "updatedAt": "2020-05-17T11:16:06.258Z",
  "networkType": "ethereum",
  "devdoc": {
    "methods": {}
  },
  "userdoc": {
    "methods": {}
  }
}