{
  "contractName": "Main",
  "abi": [
    {
      "constant": true,
      "inputs": [
        {
          "internalType": "address",
          "name": "",
          "type": "address"
        }
      ],
      "name": "covidStatus",
      "outputs": [
        {
          "internalType": "bool",
          "name": "",
          "type": "bool"
        }
      ],
      "payable": false,
      "stateMutability": "view",
      "type": "function"
    },
    {
      "constant": false,
      "inputs": [
        {
          "internalType": "string",
          "name": "_geoData",
          "type": "string"
        }
      ],
      "name": "set",
      "outputs": [],
      "payable": false,
      "stateMutability": "nonpayable",
      "type": "function"
    },
    {
      "constant": true,
      "inputs": [],
      "name": "get",
      "outputs": [
        {
          "internalType": "string",
          "name": "_geoData",
          "type": "string"
        }
      ],
      "payable": false,
      "stateMutability": "view",
      "type": "function"
    },
    {
      "constant": true,
      "inputs": [
        {
          "internalType": "address",
          "name": "userAddress",
          "type": "address"
        }
      ],
      "name": "getCovidStatus",
      "outputs": [
        {
          "internalType": "bool",
          "name": "",
          "type": "bool"
        }
      ],
      "payable": false,
      "stateMutability": "view",
      "type": "function"
    },
    {
      "constant": false,
      "inputs": [
        {
          "internalType": "address",
          "name": "userAddress",
          "type": "address"
        },
        {
          "internalType": "bool",
          "name": "status",
          "type": "bool"
        }
      ],
      "name": "changeCovidStatus",
      "outputs": [
        {
          "internalType": "bool",
          "name": "",
          "type": "bool"
        }
      ],
      "payable": false,
      "stateMutability": "nonpayable",
      "type": "function"
    },
    {
      "constant": false,
      "inputs": [
        {
          "internalType": "address",
          "name": "user",
          "type": "address"
        },
        {
          "internalType": "address",
          "name": "_contact",
          "type": "address"
        }
      ],
      "name": "addContact",
      "outputs": [],
      "payable": false,
      "stateMutability": "nonpayable",
      "type": "function"
    },
    {
      "constant": false,
      "inputs": [
        {
          "internalType": "address",
          "name": "user",
          "type": "address"
        }
      ],
      "name": "checkCorona",
      "outputs": [
        {
          "internalType": "uint256",
          "name": "",
          "type": "uint256"
        }
      ],
      "payable": false,
      "stateMutability": "nonpayable",
      "type": "function"
    },
    {
      "constant": false,
      "inputs": [
        {
          "internalType": "address",
          "name": "user",
          "type": "address"
        }
      ],
      "name": "checkSecondary",
      "outputs": [
        {
          "internalType": "uint256",
          "name": "",
          "type": "uint256"
        }
      ],
      "payable": false,
      "stateMutability": "nonpayable",
      "type": "function"
    },
    {
      "constant": false,
      "inputs": [
        {
          "internalType": "address",
          "name": "user",
          "type": "address"
        }
      ],
      "name": "setTree",
      "outputs": [
        {
          "internalType": "address[]",
          "name": "",
          "type": "address[]"
        }
      ],
      "payable": false,
      "stateMutability": "nonpayable",
      "type": "function"
    },
    {
      "constant": true,
      "inputs": [
        {
          "internalType": "address",
          "name": "user",
          "type": "address"
        }
      ],
      "name": "getTree",
      "outputs": [
        {
          "internalType": "address[]",
          "name": "",
          "type": "address[]"
        }
      ],
      "payable": false,
      "stateMutability": "view",
      "type": "function"
    },
    {
      "constant": false,
      "inputs": [],
      "name": "clearArr",
      "outputs": [],
      "payable": false,
      "stateMutability": "nonpayable",
      "type": "function"
    }
  ],
  "bytecode": "0x608060405234801561001057600080fd5b50610ed4806100206000396000f3fe608060405234801561001057600080fd5b50600436106100a95760003560e01c806374c153111161007157806374c15311146101645780637613f4d514610194578063bfc101b8146101c4578063c0c82a8e146101ce578063e5a2c843146101fe578063e9844eaf1461022e576100a9565b8063303e7f35146100ae57806337858b0c146100de5780634ed3885e146100fa57806369644653146101165780636d4ce63c14610146575b600080fd5b6100c860048036036100c39190810190610ae2565b61025e565b6040516100d59190610ca0565b60405180910390f35b6100f860048036036100f39190810190610b0b565b61042c565b005b610114600480360361010f9190810190610b83565b6104d6565b005b610130600480360361012b9190810190610ae2565b6104f0565b60405161013d9190610cff565b60405180910390f35b61014e6105eb565b60405161015b9190610cdd565b60405180910390f35b61017e60048036036101799190810190610b47565b61068d565b60405161018b9190610cc2565b60405180910390f35b6101ae60048036036101a99190810190610ae2565b61073b565b6040516101bb9190610ca0565b60405180910390f35b6101cc6107cb565b005b6101e860048036036101e39190810190610ae2565b6107db565b6040516101f59190610cc2565b60405180910390f35b61021860048036036102139190810190610ae2565b610831565b6040516102259190610cc2565b60405180910390f35b61024860048036036102439190810190610ae2565b610851565b6040516102559190610cff565b60405180910390f35b606060008090505b600260008473ffffffffffffffffffffffffffffffffffffffff1673ffffffffffffffffffffffffffffffffffffffff1681526020019081526020016000206000018054905081101561039d576003600260008573ffffffffffffffffffffffffffffffffffffffff1673ffffffffffffffffffffffffffffffffffffffff168152602001908152602001600020600001828154811061030257fe5b9060005260206000200160009054906101000a900473ffffffffffffffffffffffffffffffffffffffff1690806001815401808255809150509060018203906000526020600020016000909192909190916101000a81548173ffffffffffffffffffffffffffffffffffffffff021916908373ffffffffffffffffffffffffffffffffffffffff160217905550508080600101915050610266565b50600380548060200260200160405190810160405280929190818152602001828054801561042057602002820191906000526020600020905b8160009054906101000a900473ffffffffffffffffffffffffffffffffffffffff1673ffffffffffffffffffffffffffffffffffffffff16815260200190600101908083116103d6575b50505050509050919050565b600260008373ffffffffffffffffffffffffffffffffffffffff1673ffffffffffffffffffffffffffffffffffffffff1681526020019081526020016000206000018190806001815401808255809150509060018203906000526020600020016000909192909190916101000a81548173ffffffffffffffffffffffffffffffffffffffff021916908373ffffffffffffffffffffffffffffffffffffffff160217905550505050565b80600090805190602001906104ec92919061099e565b5050565b600080600090506000600260008573ffffffffffffffffffffffffffffffffffffffff1673ffffffffffffffffffffffffffffffffffffffff16815260200190815260200160002060000180549050905060008090505b818110156105e0576105cf600260008773ffffffffffffffffffffffffffffffffffffffff1673ffffffffffffffffffffffffffffffffffffffff168152602001908152602001600020600001828154811061059f57fe5b9060005260206000200160009054906101000a900473ffffffffffffffffffffffffffffffffffffffff16610851565b830192508080600101915050610547565b508192505050919050565b606060008054600181600116156101000203166002900480601f0160208091040260200160405190810160405280929190818152602001828054600181600116156101000203166002900480156106835780601f1061065857610100808354040283529160200191610683565b820191906000526020600020905b81548152906001019060200180831161066657829003601f168201915b5050505050905090565b600081600160008573ffffffffffffffffffffffffffffffffffffffff1673ffffffffffffffffffffffffffffffffffffffff16815260200190815260200160002060006101000a81548160ff021916908315150217905550600160008473ffffffffffffffffffffffffffffffffffffffff1673ffffffffffffffffffffffffffffffffffffffff16815260200190815260200160002060009054906101000a900460ff16905092915050565b606060038054806020026020016040519081016040528092919081815260200182805480156107bf57602002820191906000526020600020905b8160009054906101000a900473ffffffffffffffffffffffffffffffffffffffff1673ffffffffffffffffffffffffffffffffffffffff1681526020019060010190808311610775575b50505050509050919050565b600360006107d99190610a1e565b565b6000600160008373ffffffffffffffffffffffffffffffffffffffff1673ffffffffffffffffffffffffffffffffffffffff16815260200190815260200160002060009054906101000a900460ff169050919050565b60016020528060005260406000206000915054906101000a900460ff1681565b600080600090506000600260008573ffffffffffffffffffffffffffffffffffffffff1673ffffffffffffffffffffffffffffffffffffffff168152602001908152602001600020600001805490509050600080905081811015610995576001806000600260008973ffffffffffffffffffffffffffffffffffffffff1673ffffffffffffffffffffffffffffffffffffffff168152602001908152602001600020600001848154811061090157fe5b9060005260206000200160009054906101000a900473ffffffffffffffffffffffffffffffffffffffff1673ffffffffffffffffffffffffffffffffffffffff1673ffffffffffffffffffffffffffffffffffffffff16815260200190815260200160002060006101000a81548160ff02191690831515021790551561098a5782806001019350505b829350505050610999565b5050505b919050565b828054600181600116156101000203166002900490600052602060002090601f016020900481019282601f106109df57805160ff1916838001178555610a0d565b82800160010185558215610a0d579182015b82811115610a0c5782518255916020019190600101906109f1565b5b509050610a1a9190610a3f565b5090565b5080546000825590600052602060002090810190610a3c9190610a3f565b50565b610a6191905b80821115610a5d576000816000905550600101610a45565b5090565b90565b600081359050610a7381610e63565b92915050565b600081359050610a8881610e7a565b92915050565b600082601f830112610a9f57600080fd5b8135610ab2610aad82610d47565b610d1a565b91508082526020830160208301858383011115610ace57600080fd5b610ad9838284610e10565b50505092915050565b600060208284031215610af457600080fd5b6000610b0284828501610a64565b91505092915050565b60008060408385031215610b1e57600080fd5b6000610b2c85828601610a64565b9250506020610b3d85828601610a64565b9150509250929050565b60008060408385031215610b5a57600080fd5b6000610b6885828601610a64565b9250506020610b7985828601610a79565b9150509250929050565b600060208284031215610b9557600080fd5b600082013567ffffffffffffffff811115610baf57600080fd5b610bbb84828501610a8e565b91505092915050565b6000610bd08383610bdc565b60208301905092915050565b610be581610dc8565b82525050565b6000610bf682610d83565b610c008185610da6565b9350610c0b83610d73565b8060005b83811015610c3c578151610c238882610bc4565b9750610c2e83610d99565b925050600181019050610c0f565b5085935050505092915050565b610c5281610dda565b82525050565b6000610c6382610d8e565b610c6d8185610db7565b9350610c7d818560208601610e1f565b610c8681610e52565b840191505092915050565b610c9a81610e06565b82525050565b60006020820190508181036000830152610cba8184610beb565b905092915050565b6000602082019050610cd76000830184610c49565b92915050565b60006020820190508181036000830152610cf78184610c58565b905092915050565b6000602082019050610d146000830184610c91565b92915050565b6000604051905081810181811067ffffffffffffffff82111715610d3d57600080fd5b8060405250919050565b600067ffffffffffffffff821115610d5e57600080fd5b601f19601f8301169050602081019050919050565b6000819050602082019050919050565b600081519050919050565b600081519050919050565b6000602082019050919050565b600082825260208201905092915050565b600082825260208201905092915050565b6000610dd382610de6565b9050919050565b60008115159050919050565b600073ffffffffffffffffffffffffffffffffffffffff82169050919050565b6000819050919050565b82818337600083830152505050565b60005b83811015610e3d578082015181840152602081019050610e22565b83811115610e4c576000848401525b50505050565b6000601f19601f8301169050919050565b610e6c81610dc8565b8114610e7757600080fd5b50565b610e8381610dda565b8114610e8e57600080fd5b5056fea365627a7a7231582093e4b093026f4f7b6f1677c3e9d1c0bd004ed23a3667dd1bc10c6d7ed3d5e74b6c6578706572696d656e74616cf564736f6c63430005100040",
  "source": "pragma solidity >= 0.4.21 <0.7.0;\r\npragma experimental ABIEncoderV2;\r\n\r\ncontract Main {\r\n    \r\n    //Aditya's IPFS Part\r\n    string geoData;\r\n    \r\n    function set(string memory _geoData) public {\r\n        geoData = _geoData;\r\n    }\r\n    \r\n    function get() public view returns(string memory _geoData) {\r\n        return geoData;\r\n    }\r\n    \r\n    \r\n    //managing COVID Statuses\r\n    mapping(address => bool) public covidStatus;\r\n    \r\n    function getCovidStatus(address userAddress) public view returns (bool) {\r\n        return covidStatus[userAddress];\r\n    }\r\n    \r\n    function changeCovidStatus(address userAddress, bool status) public returns (bool) {\r\n        covidStatus[userAddress] = status;\r\n        return covidStatus[userAddress];\r\n    }\r\n    \r\n    \r\n    //Creating hash table of contacts\r\n    struct ContactList {\r\n        address[] contacts;\r\n    }\r\n    \r\n    mapping(address => ContactList) contactTree;\r\n    \r\n    function addContact(address user, address _contact) public {\r\n        contactTree[user].contacts.push(_contact);\r\n    }\r\n    \r\n\r\n    //These two functions return the value secondary corona contacts and first gen\r\n    function checkCorona(address user) public returns (uint256) {\r\n        uint256 totalCorona = 0;\r\n        uint256 arrayLength = contactTree[user].contacts.length;\r\n        for (uint i = 0; i < arrayLength; i++) {\r\n            if (covidStatus[contactTree[user].contacts[i]] = true) {\r\n                totalCorona++;\r\n            }\r\n        return totalCorona;\r\n        }\r\n    }\r\n    \r\n    function checkSecondary(address user) public returns (uint256) {\r\n        uint256 secondaryCorona = 0;\r\n        uint256 arrayLength = contactTree[user].contacts.length;\r\n         for (uint i = 0; i < arrayLength; i++) {\r\n             secondaryCorona = secondaryCorona + checkCorona(contactTree[user].contacts[i]);\r\n         }\r\n         return secondaryCorona;\r\n    }\r\n    \r\n \r\n    address[] connections;\r\n    \r\n    // //Need to send a total list of any connected contacts and their corona status\r\n    // function getConnections(address user) public returns (address[][] memory){\r\n    //        connections.push(contactTree[user].contacts); \r\n    //}\r\n\r\n    function setTree(address user) public returns(address[] memory){\r\n        for (uint i = 0; i < contactTree[user].contacts.length; i++) {\r\n            connections.push(contactTree[user].contacts[i]);\r\n        }\r\n        return connections;\r\n    }\r\n\r\n    function getTree(address user) public view returns(address[] memory){\r\n        return connections;\r\n    }\r\n\r\n\r\n    // console.log(coonnections) [][] [[contact1, contact2][contact1 contact2]]\r\n    // bool[] visited;\r\n    // uint256 level = 0;\r\n    \r\n    //address[][] allConnections;\r\n\r\n    // function getAllConnections(address user) public returns (address[] memory) {\r\n    //     uint256 arrayLength = contactTree[user].contacts.length;\r\n    //     if (level != 0) {\r\n    //         level = level + 1;\r\n    //     }\r\n\r\n    //     for (uint256 i = 0; i < arrayLength; i++) {\r\n    //         if (visited[i]) { // didn't visit\r\n    //             visited[i] = false;\r\n    //             address[] levelConnections = contactTree[user];\r\n    //         }\r\n    //     }\r\n    //     return allConnections;\r\n\r\n\r\n\r\n    // }\r\n     \r\n    function clearArr() public {\r\n        delete connections;\r\n        \r\n    }\r\n}",
  "sourcePath": "C:\\Users\\marko\\Documents\\GitHub\\hths.hacks-\\contracts\\Main.sol",
  "compiler": {
    "name": "solc",
    "version": "0.5.16+commit.9c3226ce.Emscripten.clang"
  },
  "schemaVersion": "3.0.23",
  "updatedAt": "2020-05-17T09:03:11.634Z",
  "networkType": "ethereum",
  "devdoc": {
    "methods": {}
  },
  "userdoc": {
    "methods": {}
  }
}